:020000040800F2
:1000000000500020D52C00083D2600084526000899
:100010004D260008552600085D2600080000000057
:10002000000000000000000000000000652600083D
:1000300071260008000000007D26000889260008BF
:100040001D2D00081D2D00081D2D00081D2D000868
:100050001D2D00081D2D00081D2D00081D2D000858
:100060001D2D00081D2D00081D2D000895260008D7
:100070001D2D0008A92600081D2D00081D2D0008B3
:100080001D2D00081D2D0008BD2600081D2D00088F
:100090001D2D00081D2D00081D2D00081D2D000818
:1000A0001D2D00081D2D00081D2D00081D2D000808
:1000B0001D2D00081D2D0008D12600081D2D00084B
:1000C0001D2D00081D2D00081D2D0008E526000827
:1000D0001D2D00081D2D00081D2D00081D2D0008D8
:1000E000F92600081D2D00081D2D00080000000045
:1000F0000000000000000000000000000000000000
:0C01000000000000000000005FF808F1A3
:10010C0010B5054C237833B9044B13B10448AFF345
:10011C0000800123237010BD64000020000000004B
:10012C00A480000808B5034B1BB103490348AFF387
:10013C00008008BD0000000068000020A4800008BA
:10014C0080F0004002E000BF81F0004142001FBF80
:10015C005FEA410392EA030F7FEA226C7FEA236C89
:10016C006AD04FEA1262D2EB1363C1BFD21841407E
:10017C0048404140B8BF5B42192B88BF704710F014
:10018C00004F40F4000020F07F4018BF404211F0B7
:10019C00004F41F4000121F07F4118BF494292EA1F
:1001AC00030F3FD0A2F1010241FA03FC10EB0C004B
:1001BC00C3F1200301FA03F100F0004302D54942D8
:1001CC0060EB4000B0F5000F13D3B0F1807F06D385
:1001DC0040084FEA310102F10102FE2A51D2B1F17D
:1001EC00004F40EBC25008BF20F0010040EA030072
:1001FC007047490040EB0000013A28BFB0F5000FF2
:10020C00EDD2B0FA80FCACF1080CB2EB0C0200FAA7
:10021C000CF0AABF00EBC25052421843BCBFD040F6
:10022C001843704792F0000F81F4000106BF80F470
:10023C0000000132013BB5E74FEA41037FEA226C33
:10024C0018BF7FEA236C21D092EA030F04D092F0FE
:10025C00000F08BF0846704790EA010F1CBF002032
:10026C00704712F07F4F04D1400028BF40F000408F
:10027C00704712F100723CBF00F50000704700F0AF
:10028C00004343F0FE4040F4000070477FEA2262D6
:10029C0016BF08467FEA23630146420206BF5FEAA7
:1002AC00412390EA010F40F4800070474FF00003A7
:1002BC0004E000BF10F0004348BF40425FEA000C6E
:1002CC0008BF704743F0964301464FF000001CE016
:1002DC0050EA010208BF70474FF000030AE000BF6C
:1002EC0050EA010208BF704711F0004302D54042AA
:1002FC0061EB41015FEA010C02BF8446014600201C
:10030C0043F0B64308BFA3F18053A3F50003BCFA36
:10031C008CF2083AA3EBC25310DB01FA02FC6344E3
:10032C0000FA02FCC2F12002BCF1004F20FA02F2EA
:10033C0043EB020008BF20F00100704702F12002DD
:10034C0001FA02FCC2F1200250EA4C0021FA02F23E
:10035C0043EB020008BF20EADC7070474FF0FF0C43
:10036C001CEAD0521EBF1CEAD15392EA0C0F93EA3E
:10037C000C0F6FD01A4480EA010C400218BF5FEAE0
:10038C0041211ED04FF0006343EA501043EA511153
:10039C00A0FB01310CF00040B1F5000F3EBF49004D
:1003AC0041EAD3715B0040EA010062F17F02FD2A51
:1003BC001DD8B3F1004F40EBC25008BF20F0010034
:1003CC00704790F0000F0CF0004C08BF49024CEA4B
:1003DC00502040EA51207F3AC2BFD2F1FF0340EADD
:1003EC00C250704740F400004FF00003013A5DDC4E
:1003FC0012F1190FDCBF00F000407047C2F100028F
:10040C00410021FA02F1C2F1200200FA02FC5FEA7B
:10041C00310040F1000053EA4C0308BF20EADC70C5
:10042C00704792F0000F00F0004C02BF400010F437
:10043C00000F013AF9D040EA0C0093F0000F01F0E4
:10044C00004C02BF490011F4000F013BF9D041EA06
:10045C000C018FE70CEAD15392EA0C0F18BF93EA08
:10046C000C0F0AD030F0004C18BF31F0004CD8D132
:10047C0080EA010000F00040704790F0000F17BFB9
:10048C0090F0004F084691F0000F91F0004F14D0FF
:10049C0092EA0C0F01D142020FD193EA0C0F03D157
:1004AC004B0218BF084608D180EA010000F000405A
:1004BC0040F0FE4040F40000704740F0FE4040F435
:1004CC00400070474FF0FF0C1CEAD0521EBF1CEAD4
:1004DC00D15392EA0C0F93EA0C0F69D0A2EB0302F2
:1004EC0080EA010C49024FEA402037D04FF080538C
:1004FC0043EA111143EA10130CF000408B4238BF51
:10050C005B0042F17D024FF4000C8B4224BF5B1A5E
:10051C0040EA0C00B3EB510F24BFA3EB510340EAAC
:10052C005C00B3EB910F24BFA3EB910340EA9C005A
:10053C00B3EBD10F24BFA3EBD10340EADC001B01CA
:10054C0018BF5FEA1C1CE0D1FD2A3FF650AF8B426E
:10055C0040EBC25008BF20F0010070470CF0004C7B
:10056C004CEA50207F32C2BFD2F1FF0340EAC250A6
:10057C00704740F400004FF00003013A37E792F067
:10058C00000F00F0004C02BF400010F4000F013AC5
:10059C00F9D040EA0C0093F0000F01F0004C02BFC0
:1005AC00490011F4000F013BF9D041EA0C0195E729
:1005BC000CEAD15392EA0C0F08D142027FF47DAFC2
:1005CC0093EA0C0F7FF470AF084676E793EA0C0FB2
:1005DC0004D14B023FF44CAF08466EE730F0004CB0
:1005EC0018BF31F0004CCAD130F000427FF45CAF40
:1005FC0031F000437FF43CAF5FE700BF4FF0FF3CAE
:10060C0006E000BF4FF0010C02E000BF4FF0010C00
:10061C004DF804CD4FEA40024FEA41037FEA226CC9
:10062C0018BF7FEA236C11D001B052EA530C18BFEB
:10063C0090EA010F58BFB2EB030088BFC81738BF50
:10064C006FEAE17018BF40F0010070477FEA226C3E
:10065C0002D15FEA402C05D17FEA236CE4D15FEA3A
:10066C00412CE1D05DF8040B704700BF844608466E
:10067C006146FFE70FB5FFF7C9FF002848BF10F12F
:10068C00000F0FBD4DF808EDFFF7F4FF0CBF012074
:10069C0000205DF808FB00BF4DF808EDFFF7EAFFFE
:1006AC0034BF012000205DF808FB00BF4DF808EDB9
:1006BC00FFF7E0FF94BF012000205DF808FB00BFAE
:1006CC004DF808EDFFF7D2FF94BF012000205DF834
:1006DC0008FB00BF4DF808EDFFF7C8FF34BF012041
:1006EC0000205DF808FB00BF4FEA4002B2F1FE4F5C
:1006FC000FD34FF09E03B3EB12620DD94FEA0023D8
:10070C0043F0004310F0004F23FA02F018BF4042B0
:10071C0070474FF00000704712F1610F01D1420297
:10072C0005D110F0004008BF6FF0004070474FF04B
:10073C000000704742000ED2B2F1FE4F0BD34FF0C7
:10074C009E03B3EB126209D44FEA002343F000433B
:10075C0023FA02F070474FF00000704712F1610F5E
:10076C0001D1420202D14FF0FF3070474FF0000030
:10077C00704700BF90B58DB002AFB96011461A46F4
:10078C000346FB730B46BB811346FB80FB7B1E2B86
:10079C0064D997F90F30002B60DBBB681B78FB77B3
:1007AC00BB6801331B78BB77BB6802331B787B7744
:1007BC00BB6803331B783B77FB7B203BFA7F02FB48
:1007CC0003F30433BA681344BB61BB7F9AB27B7FDB
:1007DC009CB2F988B889BB8F0093234600F0FEFCCD
:1007EC0000237B6235E000233B622BE03B7F3A6ABF
:1007FC0003FB02F27B6ADB1003F01F03134401338B
:10080C00BA6913441B78FB757B6A03F0070301225A
:10081C0002FA03F3BB75FA7DBB7D1340DBB2002BF0
:10082C000DD03B6A9AB2BB89134498B27B6A9AB2D8
:10083C00FB8813449BB23A8F194600F069FC3B6A63
:10084C0001333B62BB7F3A6A9A42CFDB7B6A01334E
:10085C007B627B7F7A6A9A42C5DB00E000BF2C3753
:10086C00BD4690BD80B58AB002AFF860B960114644
:10087C001A460B46FB801346BB80BB681B78FB7784
:10088C00BB6801331B78BB772DE0FB681878B988FF
:10089C00FA88BB8D01933B8D00930B46B968FFF72B
:1008AC0069FFFB681B78203BFA7F02FB03F30433E0
:1008BC00BA681344BB61BB691B78FB75FB7D9A1C42
:1008CC00BB7F9A4207DAFB7D9AB2FB8813449BB23A
:1008DC000233FB8004E0BB7F9AB2FB881344FB809D
:1008EC00FB680133FB60FB681B78002BCDD100BF8C
:1008FC0000BF2037BD4680BD80B58CB000AFF8601E
:10090C00B9601346FB80A023FB62F023BB62FA683C
:10091C00FB6AD31A002BB8BF5B423B62BA68BB6A56
:10092C00D31A002BB8BF5B42FB61FA6AFB689A4290
:10093C0001DA012301E04FF0FF33BB61BA6ABB68F7
:10094C009A4201DA012301E04FF0FF337B613A6AEE
:10095C00FB69D31A7B62FB6A9BB2BA6A91B2FA88C2
:10096C00184600F0D5FBFA6AFB689A4203D1BA6AC2
:10097C00BB689A421CD07B6A5B003B61FB695B42A3
:10098C003A699A4207DD7A6AFB69D31A7B62FA6A82
:10099C00BB691344FB623A693B6A9A42DBDA7A6AB6
:1009AC003B6A13447B62BA6A7B691344BB62D2E72D
:1009BC0000BF00BF3037BD4680BD000090B58FB082
:1009CC0000AFF860B9607A603B60A0233B63F02312
:1009DC00FB62B9687868FFF7B7FB0346BB623868FF
:1009EC00FFF768FC03461946B86AFFF76BFD034630
:1009FC007B6200237B634BE0786BFFF75BFC034669
:100A0C00796A1846FFF7AAFC03461946B868FFF73F
:100A1C009DFB03463B622349386AFFF79FFC034664
:100A2C0021491846FFF74EFD0346FB61F868FFF7B6
:100A3C0041FC0446F86906F031FD03461946204690
:100A4C00FFF78CFC03461846FFF74EFE02463B6B45
:100A5C001344BB61F868FFF72DFC0446F86906F0F7
:100A6C0055FD034619462046FFF778FC0346184609
:100A7C00FFF73AFE0246FB6A9B1A7B61B7F84830D7
:100A8C001A467969B869FFF737FF7B6B01337B63D3
:100A9C007A6B3B689A42AFDD00BF00BF3C37BD4666
:100AAC0090BD00BFDB0F49400000344380B582B0DD
:100ABC0000AF78607B68064A934204D10122012181
:100ACC00044803F004FC00BF0837BD4680BD00BFDE
:100ADC007C010020000C014080B582B000AF0346C1
:100AEC00FB7100BF084B1B689B6803F00203022BD1
:100AFC00F8D1FB1D01221946034804F08DFA00BF02
:100B0C000837BD4680BD00BF7C01002080B582B097
:100B1C0000AF78600B467B8000BF084B1B689B685E
:100B2C0003F00203022BF8D17B881A46796803483C
:100B3C0004F072FA00BF0837BD4680BD7C0100206E
:100B4C0080B582B000AF0346FB71002240210848FB
:100B5C0003F0BDFB00220121064803F0B8FBFB7932
:100B6C001846FFF7B9FF00BF0837BD4680BD00BF70
:100B7C0000080140000C014080B582B000AF034674
:100B8C00FB7101224021084803F0A1FB0022012146
:100B9C00064803F09CFBFB791846FFF79DFF00BF4E
:100BAC000837BD4680BD00BF00080140000C014065
:100BBC0080B582B000AF78600B467B80012240216B
:100BCC00084803F084FB00220121074803F07FFB57
:100BDC007B8819467868FFF799FF00BF0837BD4638
:100BEC0080BD00BF00080140000C014090B585B0ED
:100BFC0000AF0446084611461A462346FB800346BE
:100C0C00BB800B467B8013463B80FB881B0A9BB248
:100C1C00DBB23B73FB88DBB27B737B881B0A9BB21A
:100C2C00DBB2BB737B88DBB2FB732A20FFF788FF38
:100C3C0007F10C0304211846FFF7BAFFBB881B0A07
:100C4C009BB2DBB23B73BB88DBB27B733B881B0A6A
:100C5C009BB2DBB2BB733B88DBB2FB732B20FFF781
:100C6C006FFF07F10C0304211846FFF7A1FF2C209E
:100C7C00FFF766FF00BF1437BD4690BD80B500AFCF
:100C8C00002210210C4803F022FB0A2002F0A4F8E9
:100C9C0000220121094803F01AFB0A2002F09CF8FB
:100CAC0001221021044803F012FB01220121034808
:100CBC0003F00DFB00BF80BD00080140000C01409B
:100CCC0080B500AF01221021024803F000FB00BFE9
:100CDC0080BD00BF0008014080B500AFFFF7F0FFFA
:100CEC00FFF7CCFF0120FFF72BFF0A2002F074F86E
:100CFC00CB20FFF725FF3920FFF73EFF2C20FFF715
:100D0C003BFF0020FFF738FF3420FFF735FF0220B0
:100D1C00FFF732FFCF20FFF713FF0020FFF72CFF68
:100D2C00C120FFF729FF3020FFF726FFE820FFF74F
:100D3C0007FF8520FFF720FF0020FFF71DFF78201D
:100D4C00FFF71AFFEA20FFF7FBFE0020FFF714FF66
:100D5C000020FFF711FFED20FFF7F2FE6420FFF7F4
:100D6C000BFF0320FFF708FF1220FFF705FF812080
:100D7C00FFF702FFF720FFF7E3FE2020FFF7FCFE52
:100D8C00C020FFF7DDFE2320FFF7F6FEC120FFF7A2
:100D9C00D7FE1020FFF7F0FEC520FFF7D1FE3E2056
:100DAC00FFF7EAFE2820FFF7E7FEC720FFF7C8FE93
:100DBC008620FFF7E1FE3620FFF7C2FE4820FFF742
:100DCC00DBFE3A20FFF7BCFE5520FFF7D5FEB12025
:100DDC00FFF7B6FE0020FFF7CFFE1820FFF7CCFE82
:100DEC00B620FFF7ADFE0820FFF7C6FE8220FFF706
:100DFC00C3FE2720FFF7C0FEF220FFF7A1FE002064
:100E0C00FFF7BAFE2620FFF79BFE0120FFF7B4FE8A
:100E1C00E020FFF795FE0F20FFF7AEFE3120FFF725
:100E2C00ABFE2B20FFF7A8FE0C20FFF7A5FE0E2033
:100E3C00FFF7A2FE0820FFF79FFE4E20FFF79CFE57
:100E4C00F120FFF799FE3720FFF796FE0720FFF7FA
:100E5C0093FE1020FFF790FE0320FFF78DFE0E206F
:100E6C00FFF78AFE0920FFF787FE0020FFF784FEBC
:100E7C00E120FFF765FE0020FFF77EFE0E20FFF756
:100E8C007BFE1420FFF778FE0320FFF775FE112080
:100E9C00FFF772FE0720FFF76FFE3120FFF76CFEA5
:100EAC00C120FFF769FE4820FFF766FE0820FFF718
:100EBC0063FE0F20FFF760FE0C20FFF75DFE312074
:100ECC00FFF75AFE3620FFF757FE0F20FFF754FEB0
:100EDC001120FFF735FE642001F07EFF2920FFF77B
:100EEC002FFE002000F002F800BF80BD80B582B05C
:100EFC0000AF0346FB713620FFF722FE012001F004
:100F0C006BFFFB79032B37D801A252F823F000BFFB
:100F1C002D0F0008430F0008590F00086F0F000831
:100F2C004820FFF729FE174BF0221A80164B4FF47E
:100F3C00A0721A8021E02820FFF71EFE114B4FF4FF
:100F4C00A0721A80104BF0221A8016E08820FFF74E
:100F5C0013FE0C4BF0221A800B4B4FF4A0721A802C
:100F6C000BE0E820FFF708FE064B4FF4A0721A8046
:100F7C00054BF0221A8000E000BF00BF0837BD46C9
:100F8C0080BD00BF02000020000000202DE9F043CE
:100F9C008DB000AF03463960FB806B461E460023C4
:100FAC00FB623B685B00B3F5FA7F02D23B68FB62E5
:100FBC0002E04FF4FA73FB62012240213E4803F039
:100FCC0086F9002201213D4803F081F9FB881B0AB8
:100FDC009BB287F82330F96A0B46013BFB61002377
:100FEC00884699464FF000024FF000034FEAC903C0
:100FFC0043EA58734FEAC80200230C461D464FF0D3
:10100C0000024FF00003EB0043EA5473E200CB1DE7
:10101C00DB08DB00ADEB030D6B460033BB6100233B
:10102C00BB620EE0BA69BB6A134497F823201A70AE
:10103C00BB6A0133FA88D1B2BA69D154BB6A0233A4
:10104C00BB62BA6AFB6A9A42ECD33B685B007B6179
:10105C007A69FB6AB2FBF3F33B617B69FA6AB3FB17
:10106C00F2F2F96A01FB02F29B1AFB603B69002B5E
:10107C0010D000237B6209E0FB6A9AB20A23B9699B
:10108C000F4803F085FE7B6A01337B627A6A3B6909
:10109C009A42F1D3FB689AB20A23B969084803F063
:1010AC0077FE01220121054803F011F9B54600BF76
:1010BC003437BD46BDE8F08300080140000C014008
:1010CC007C01002080B582B000AF0346FB800E4B44
:1010DC001B889AB20D4B1B889BB200210020FFF796
:1010EC0085FD094B1B889BB21A46084B1B889BB28B
:1010FC0002FB03F31A46FB8811461846FFF746FF1E
:10110C0000BF0837BD4680BD020000200000002053
:10111C0080B586B000AF0346FB800B46BB80134600
:10112C007B802C4B1B889BB2FA889A424DD22A4B5F
:10113C001B889BB2BA889A4247D2FB881B0A9BB287
:10114C00DBB23B75FB88DBB27B75FB8801331B1272
:10115C00DBB2BB75FB88DBB20133DBB2FB75BB8842
:10116C001B0A9BB2DBB23B74BB88DBB27B74BB88C3
:10117C0001331B12DBB2BB74BB88DBB20133DBB2B5
:10118C00FB747B881B0A9BB2DBB23B737B88DBB2A4
:10119C007B732A20FFF7D4FC07F1140304211846B3
:1011AC00FFF706FD2B20FFF7CBFC07F11003042102
:1011BC001846FFF7FDFC2C20FFF7C2FC07F10C03CF
:1011CC0002211846FFF7F4FC00E000BF1837BD46BB
:1011DC0080BD00BF020000200000002090B583B04D
:1011EC0000AF0446084611461A462346FB800346C8
:1011FC00BB800B467B8013463B80244B1B889BB2E9
:10120C00FA889A423DD2224B1B889BB2BA889A42EA
:10121C0037D2FA887B8813441C4A128892B29342C4
:10122C0005DD1A4B1B889AB2FB88D31A7B80BA88CF
:10123C003B881344164A128892B2934205DD144B34
:10124C001B889AB2BB88D31A3B80FA887B881344DC
:10125C009BB2013B9CB2BA883B8813449BB2013BC6
:10126C009BB2B988F8882246FFF7C0FC3B887A8885
:10127C0002FB03F31A463B8B11461846FFF786FE1A
:10128C0000E000BF0C37BD4690BD00BF020000203F
:10129C000000002080B582B000AF78607B681B69CD
:1012AC00184604F001FA7B6818687B689B8800225A
:1012BC00194603F00CF800BF0837BD4680BD00008E
:1012CC0080B586B000AF786000233B610023FB60E3
:1012DC001E23FB827B6818687B689B880122194659
:1012EC0002F0F5FF7B681B691B6800225A6200BF85
:1012FC007B681B691B685B6A092BF9D97B681868CA
:10130C007B689B880022194602F0E1FF7B681B6911
:10131C001B6800225A6208E07B681B691B685B6AC9
:10132C00B3F57A7F01D91E2348E07B689A687B6805
:10133C009B891946104602F0B3FF0346002BEBD0F5
:10134C007B681B691B685B6A3B610AE07B681B69F5
:10135C001B685A6A3B6903F5E1639A4201D91E2363
:10136C002CE07B689A687B689B891946104602F0D2
:10137C0097FF0346002BE9D17B681B691B685B6AEE
:10138C00FB60FA683B69D31A1846FEF78FFF0346D9
:10139C000C491846FEF7E2FF03464FF08041184611
:1013AC00FFF790F803461846FFF7C4F90346FB8293
:1013BC00FB8A1E2B01D91E23FB82FB8A1846183789
:1013CC00BD4680BD96430B3D80B584B000AF3B1D40
:1013DC0000221A605A609A60204B214A1A601F4BF7
:1013EC004FF480729A601D4B00221A731B4B002223
:1013FC001A751A4B4FF46022DA61184B00225A60AE
:10140C00164B02221A61154801F00AFD0346002B07
:10141C0001D001F02FF800237B600123BB60002377
:10142C00FB603B1D19460D4802F040F80346002BAB
:10143C0001D001F01FF801237B600223BB603B1D30
:10144C001946064802F032F80346002B01D001F091
:10145C0011F800BF1037BD4680BD00BF80000020D2
:10146C000024014080B588B000AF786007F110030C
:10147C0000221A605A609A60DA607B681B682C4AFA
:10148C00934251D12B4B9B692A4A43F400739361CD
:10149C00284B9B6903F40073FB60FB68254B9B692D
:1014AC00244A43F004039361224B9B6903F0040329
:1014BC00BB60BB6803233B6103237B6107F1100313
:1014CC0019461D4802F068FD1C4B1D4A1A601B4B47
:1014DC0000225A60194B00229A60184B8022DA6065
:1014EC00164B4FF400721A61144B4FF400625A61A0
:1014FC00124B20229A61114B0022DA610F4802F044
:10150C00E5FA0346002B01D000F0B4FF7B680B4AD0
:10151C001A620A4A7B68536200220021122002F0F0
:10152C009EFA122002F0B7FA00BF2037BD4680BDEC
:10153C00002401400010024000080140B0000020CF
:10154C000800024080B582B000AF104B5B690F4AB7
:10155C0043F0010353610D4B5B6903F001037B60A6
:10156C007B68002200210B2002F079FA0B2002F09C
:10157C0092FA002200210D2002F071FA0D2002F0E7
:10158C008AFA00BF0837BD4680BD00BF001002407C
:10159C0080B588B000AF07F1100300221A605A60C2
:1015AC009A60DA604B4B9B694A4A43F01003936193
:1015BC00484B9B6903F01003FB60FB68454B9B6930
:1015CC00444A43F020039361424B9B6903F0200390
:1015DC00BB60BB683F4B9B693E4A43F0040393617D
:1015EC003C4B9B6903F004037B607B68394B9B6924
:1015FC00384A43F008039361364B9B6903F00803A8
:10160C003B603B6801224FF40051334802F05FFE0F
:10161C0001225021314802F05AFE012201213048AA
:10162C0002F055FE0022C0212D4802F050FE4FF46E
:10163C0000533B6101237B610023BB610223FB61EF
:10164C0007F110031946244802F0A6FC50233B6115
:10165C0001237B610123BB610323FB6107F11003B1
:10166C0019461E4802F098FC01233B6101237B6163
:10167C000123BB610323FB6107F1100319461848D2
:10168C0002F08AFC4FF4E0433B61164B7B61012373
:10169C00BB6107F110031946114802F07DFCC02311
:1016AC003B6101237B610023BB610223FB6107F1DA
:1016BC00100319460A4802F06FFC00220021282072
:1016CC0002F0CDF9282002F0E6F900BF2037BD4624
:1016DC0080BD00BF00100240001001400008014016
:1016EC00000C01400000211080B588B000AF03460B
:1016FC00FB810B46BB8113467B81C7F804C00023DA
:10170C00FB6142E00023BB6139E02449FA691346CE
:10171C009B001344CA18BB6913441B78002B2BD0B5
:10172C0000237B6125E000233B611CE0BB699BB27D
:10173C009B009AB2FB8913449AB23B699BB2134447
:10174C0098B2FB699BB29B009AB2BB8913449AB2C4
:10175C007B699BB213449BB27A891946FFF7D8FC7C
:10176C003B6901333B613B69032BDFDD7B69013353
:10177C007B617B69032BD6DDBB690133BB61BB6924
:10178C00042BC2DDFB690133FB61FB69042BB9DD62
:10179C0000BF00BF2037BD4680BD00BFF8A10008C8
:1017AC00B0B590B002AF07F14803FB6201F0B2FA9A
:1017BC00FFF7EEFEFFF7C6FE00F062FEFFF704FE39
:1017CC00FFF78AFA00F0D6FCFFF7E2FEFFF7BAFE4D
:1017DC0000F056FEFFF7F8FD00F0D4FF01F0B8F86A
:1017EC0001F014F901F05CF8A64803F0A7FF002003
:1017FC00FFF768FC0021A44804F042F8A24B1B68D8
:10180C0000225A630421A04804F03AF89E4B1B684E
:10181C00C8229A6300219D4804F032F89B4B1B6848
:10182C0000225A6300219A4804F01CF9954803F0F1
:10183C0085FF984B07F118041D460FCD0FC42B687C
:10184C002360954B3C1D1D460FCD0FC42B682360A8
:10185C0007F118031846FFF71DFD3B1D1846FFF74F
:10186C0019FD0220FFF742FB002387F837300023D5
:10187C0087F83630002387F83530002387F834306A
:10188C00002387F8333007F12C039C4600F030FC22
:10189C00824B1B78DBB2013B032BF9D801A252F827
:1018AC0023F000BFC1180008391B0008911D000867
:1018BC00791E00087A4B01221A707A4B1B78DBB226
:1018CC00012B40F0FF80784B00221A7097F83430CF
:1018DC00002B13D10020FFF7F5FB012387F83430E0
:1018EC000320FFF703FB002301934FF6FF730093D4
:1018FC000A230A226D496E48FEF7B4FF3B1D1846B9
:10190C00FFF7DEFC0346DAB26A4B1A7097F83330F5
:10191C00002B5CD1684B1B68DBB207F12C029446A0
:10192C00184600F0C1FB3B1D1846FFF7C9FC0346E7
:10193C00DAB2604B1A705F4B1B781A465F496048ED
:10194C0005F0FCF80023019340F2FF7300930A2387
:10195C00782256495A48FEF785FF564B1B781A4693
:10196C001346DB009C1A544B1B681846FEF7A2FC6E
:10197C000546514B1B6802331846FEF79BFC02468A
:10198C004FF4FC630093012329462046FFF716F819
:10199C00494B1B680233484A1360474B1B68B32BF7
:1019AC0040F3A680444BB4221A60012387F83330ED
:1019BC000020FFF787FB002301934FF6FF73009382
:1019CC000A230A2239493A48FEF74CFF90E03A4B79
:1019DC001B68DBB207F12C029446184600F064FB3E
:1019EC003B1D1846FFF76CFC0346DAB2314B1A70FC
:1019FC00304B1B781A463149314805F09FF80023CB
:101A0C00019340F2FF7300930A23782227492C4854
:101A1C00FEF728FF274B1B781A461346DB009C1A4F
:101A2C00254B1B681846FEF745FC0546224B1B68E8
:101A3C0002331846FEF73EFC02464FF478430093FF
:101A4C00012329462046FEF7B9FF1B4B1B68002BD0
:101A5C0005DD194B1B68023B174A136048E0002355
:101A6C0087F833300020FFF72DFB002301934FF64E
:101A7C00FF7300930A230A220C490D48FEF7F2FE6D
:101A8C0036E000BFF40200201C020020640200209B
:101A9C00AC02002060810008748100080400002062
:101AAC00790100207801002005000020B081000899
:101ABC00BC8000085C01002008010020C8800008E0
:101ACC000C010020A14B1B78DBB2022B10D19F4BD9
:101ADC0000221A709E4B01221A70002387F83430B2
:101AEC000220FFF703FA07F12C039C4600F000FBE1
:101AFC00964B1B78DBB2002B40F0518207F12C0384
:101B0C009C465A21002000F075FA07F12C039C46E4
:101B1C001E21002000F06EFA07F12C039C464FF4B6
:101B2C00784200210020FFF7DFFD38E2894B0122CB
:101B3C001A70864B1B78DBB2012B40F0D68097F8DD
:101B4C003530002B3DD1012387F835300020FFF7CD
:101B5C00B9FA002301934FF61F0300930A230022C6
:101B6C007D497E48FEF77EFE002301934FF6E0731D
:101B7C0000932823002278497948FEF773FE00234E
:101B8C0001934FF61F0300930A239B227249754859
:101B9C00FEF768FE002301934FF6E07300932823B1
:101BAC009B226D496F48FEF75DFE002301934FF4B5
:101BBC00FC6300934FF49673002267496A48FEF762
:101BCC0051FE634B00221A703B1D1846FFF778FB41
:101BDC000346DAB2654B1A700A2001F0FDF807F1E2
:101BEC0018031846FFF76CFB0346DAB2604B1A7009
:101BFC000A2001F0F1F85D4B1B78002B00F0888077
:101C0C005B4B1B78002B00F08380584B1B781A46DB
:101C1C005849594804F092FF002301934FF6FF7383
:101C2C0000930A2378224C495348FEF71BFE504B75
:101C3C001B781A464F49514804F080FF002301934A
:101C4C0040F2FF7300932823782243494B48FEF758
:101C5C0009FE464B1B781D2B03D8454B1B781D2BBF
:101C6C0056D9424B1B781D2B03D9414B1B781D2B8E
:101C7C004ED83E4B1B781A463D4B1B78033B9A4281
:101C8C0011DA3F4B1B780A2B26D93D4B1B780A3BAC
:101C9C00DAB23B4B1A703A4B1B78092B1CD8384BD9
:101CAC000A221A7018E0324B1B781A462F4B1B78FD
:101CBC00033B9A4210DA324B1B78A92B0CD8304BD1
:101CCC001B780A33DAB22E4B1A702D4B1B78AA2BC9
:101CDC0002D92B4BAA221A70294B1B7807F12C0224
:101CEC009446184600F0E0F912E0184B1B78DBB272
:101CFC00022B0DD1154B00221A70154B01221A70B4
:101D0C00002387F8353007F12C039C4600F0F0F9DE
:101D1C000E4B1B78DBB2002B40F0438107F12C03F8
:101D2C009C460021002000F065F907F12C039C462D
:101D3C003C21002000F05EF907F12C039C464FF487
:101D4C0078421E210020FFF7CFFC2AE17801002009
:101D5C000500002079010020B0810008D080000827
:101D6C00E0800008F0800008F48000085C0100208E
:101D7C005D0100200C8100080C01002020010020D6
:101D8C005E0100208A4B01221A708A4B1B78DBB251
:101D9C00012B3AD1884B00221A7097F83630002B61
:101DAC0046D1012387F836300020FFF78BF900234A
:101DBC0001934FF6FF730093002316227F4980484E
:101DCC00FEF750FD0023019340F2FF730093322382
:101DDC0000227A497B48FEF745FD002301934FF61C
:101DEC001F0300936423002274497748FEF73AFDE1
:101DFC00002301934FF4FC6300934FF4967300227D
:101E0C0072497348FEF72EFD12E06A4B1B78DBB269
:101E1C00022B0DD1674B00221A70674B01221A70EE
:101E2C00002387F8363007F12C039C4600F060F94C
:101E3C00604B1B78DBB2002B40F0B58007F12C0314
:101E4C009C461E21002000F0D5F807F12C039C467F
:101E5C005A21002000F0CEF807F12C039C464FF4D9
:101E6C0078423C210020FFF73FFC9CE0504B0122C4
:101E7C001A70504B1B78DBB2012B67D14E4B0022F2
:101E8C001A7097F83730002B3CD10020FFF71AF965
:101E9C00012387F83730002301931F2300930A2373
:101EAC000A2246494B48FEF7DDFC002301934FF410
:101EBC007843009332230A2240494748FEF7D2FC6C
:101ECC00002301934FF6FF7300930A23A0223B4992
:101EDC004248FEF7C7FC002301934FF6FF730093B3
:101EEC003223A02235493D48FEF7BCFC0023019368
:101EFC004FF4FC6300934FF496730022334934483B
:101F0C00FEF7B0FC364B1B781A463649364804F0BF
:101F1C0015FE364B1B781A463249354804F00EFE36
:101F2C00002301931F2300930A237D222349304869
:101F3C00FEF798FC002301934FF47843009332236F
:101F4C007D221E492848FEF78DFC12E0194B1B78A8
:101F5C00DBB2022B0DD1174B00221A70164B01224B
:101F6C001A70002387F8373007F12C039C4600F0D9
:101F7C00BFF8104B1B78DBB2002B16D107F12C03EA
:101F8C009C463C21002000F035F807F12C039C46C0
:101F9C004FF478425A210020FFF7A6FB05E000BF62
:101FAC0076E400BF74E400BF72E400BF70E400BFCD
:101FBC00790100207801002005000020F49200082F
:101FCC00108100082081000834810008B0810008CD
:101FDC00F480000844810008508100085C810008EE
:101FEC00010100200C8100083401002003010020B5
:101FFC004801002080B586B000AF03460A46FB803E
:10200C001346BB80C7F800C000237B6142E000236D
:10201C003B6139E023497A6913469B001344CA1883
:10202C003B6913441B78002B2BD00023FB6025E06D
:10203C000023BB601CE03B699BB29B009AB2FB88FF
:10204C0013449AB2BB689BB2134498B27B699BB29F
:10205C009B009AB2BB8813449AB2FB689BB21344A0
:10206C009BB200221946FFF753F8BB680133BB60E3
:10207C00BB68032BDFDDFB680133FB60FB68032BC4
:10208C00D6DD3B6901333B613B69042BC2DD7B69C7
:10209C0001337B617B69042BB9DD00BF00BF1837AE
:1020AC00BD4680BD14A2000880B485B000AF0346C5
:1020BC00FB71C7F800C0FB7940F26C7202FB03F3B2
:1020CC00094A82FB03121A44D211DB17D31A9BB2B2
:1020DC0003F22623FB81054B1B68FA895A6300BF68
:1020EC001437BD4680BC7047B7600BB66402002045
:1020FC0080B584B002AFC7F804C00020FEF7E2FF41
:10210C00002301934FF6FF7300930023162214490A
:10211C001448FEF7A7FB002301934FF6FF730093BF
:10212C001E2316220E491048FEF79CFB0023019338
:10213C004FF6FF7300933C23162209490B48FEF718
:10214C0091FB002301934FF6FF7300935A23162241
:10215C0003490748FEF786FB00BF0837BD4680BD24
:10216C00F492000888810008908100089C81000886
:10217C00A481000880B594B000AF07F12803282291
:10218C000021184604F0FCFC07F1140300221A602D
:10219C005A609A60DA601A613B1D00221A605A601C
:1021AC009A60DA600123BB624FF48033FB62002338
:1021BC003B630123BB6302237B644FF48033BB641A
:1021CC004FF4E013FB6407F12803184602F0C8F83B
:1021DC000346002B01D000F04DF90F237B61022345
:1021EC00BB610023FB614FF480633B6200237B6285
:1021FC0007F114030221184602F034FB0346002BAE
:10220C0001D000F037F902237B604FF40043FB60F0
:10221C003B1D184602F082FC0346002B01D000F057
:10222C0029F900BF5037BD4680BD000080B582B093
:10223C0000AF786002220E490E4800F07FFF0D4877
:10224C0000F0C6FE0C4B1B68002B07DD4FF4005151
:10225C000A4802F054F8084B00221A60064B1B681F
:10226C000133054A136000BF0837BD4680BD00BF6F
:10227C00F400002080000020040100200010014028
:10228C0080B483B000AF78602E4B1B689AB22E4B93
:10229C001A802C4B5B689AB22C4B1A802A4B1B88E9
:1022AC001A4613465B0013445A011344284A82FB16
:1022BC0003121A44D212DB17D31ADAB2254B1A7056
:1022CC00244B1B781A46642302FB03F3224A82FB3D
:1022DC0003121A449211DB17D31ADAB21F4B1A707D
:1022EC001E4B1A781E4B1B685A63184B1B881A46D8
:1022FC0013465B0013445A011344154A82FB031224
:10230C001A44D212DB17D31ADAB2164B1A70154BC9
:10231C001B781A46642302FB03F30F4A82FB031259
:10232C001A449211DB17D31ADAB20F4B1A700E4BF8
:10233C001A780B4B1B689A6300BF0C37BD4680BCE8
:10234C00704700BFF4000020FC000020FE000020BD
:10235C00810008800001002003B57EA5010100204A
:10236C001C020020020100200301002080B582B075
:10237C0000AF0346FB80354B1B78DBB2012B1BD126
:10238C00FB88B3F5005F17D100F01CFD0346304A03
:10239C0013602F4B1A682F4B1B68D31AB3F5C87FE9
:1023AC000AD92B4B1B682B4A13602B4B1B78DBB2C7
:1023BC000133DAB2284B1A70284B1B78DBB2012B95
:1023CC003FD1FB88B3F5805F1BD100F0FBFC0346CB
:1023DC00234A1360234B1B78DBB2032B11D8204B01
:1023EC001A68214B1B68D31AFA2B0AD91C4B1B6891
:1023FC001D4A13601B4B1B78DBB20133DAB2194B4D
:10240C001A70FB88B3F5804F1BD1164B1B78DBB2CF
:10241C00012B16D900F0D6FC0346144A1360134B5B
:10242C001A68134B1B68D31AFA2B0AD90F4B1B686B
:10243C000F4A13600B4B1B78DBB2013BDAB2094B32
:10244C001A7000BF0837BD4680BD00BF790100205F
:10245C006C0100206801002078010020050000209C
:10246C0064010020040000206001002074010020A1
:10247C007001002080B400AF72B600BF00BFFDE752
:10248C0080B500AF174B184A1A60164B4FF4827286
:10249C005A60144B00229A60124B0022DA60114BE6
:1024AC0000221A610F4B00225A610E4B4FF400723E
:1024BC009A610C4B0822DA610A4B00221A62094B12
:1024CC0000225A62074B00229A62064B0A22DA62F9
:1024DC00044802F0D9FB0346002B01D0FFF7CAFFDA
:1024EC0000BF80BD7C0100200030014080B588B069
:1024FC0000AF786007F1100300221A605A609A60EE
:10250C00DA607B681B682C4A934251D12B4B9B6938
:10251C002A4A43F480539361284B9B6903F48053FC
:10252C00FB60FB68254B9B69244A43F004039361D1
:10253C00224B9B6903F00403BB60BB68A0233B6187
:10254C0002237B610323FB6107F1100319461C482E
:10255C0001F022FD1B4B1C4A1A601A4B10225A60C8
:10256C00184B00229A60174B8022DA60154B002220
:10257C001A61144B00225A61124B00229A61114BC2
:10258C000022DA610F4801F0A1FA0346002B01D0BA
:10259C00FFF770FF7B680B4A9A640A4A7B685362A8
:1025AC0000220021232001F05AFA232001F073FAB3
:1025BC0000BF2037BD4680BD0030014000100240F6
:1025CC0000080140D40100203000024080B485B0E6
:1025DC0000AF154B9B69144A43F001039361124BF6
:1025EC009B6903F00103BB60BB680F4BDB690E4AB0
:1025FC0043F08053D3610C4BDB6903F080537B6059
:10260C007B680A4B5B68FB60FB6823F0E063FB6054
:10261C00FB6843F00073FB60044AFB68536000BF27
:10262C001437BD4680BC70470010024000000140CA
:10263C0080B400AF00BFFDE780B400AF00BFFDE782
:10264C0080B400AF00BFFDE780B400AF00BFFDE772
:10265C0080B400AF00BFFDE780B400AF00BFBD4643
:10266C0080BC704780B400AF00BFBD4680BC7047D3
:10267C0080B400AF00BFBD4680BC704780B500AFD2
:10268C0000F08EFB00BF80BD80B500AF024801F0AA
:10269C004FFB00BF80BD00BFB000002080B500AF75
:1026AC00024801F045FB00BF80BD00BFD4010020F3
:1026BC0080B500AF024800F01FFE00BF80BD00BF18
:1026CC008000002080B500AF024803F08BFA00BFF9
:1026DC0080BD00BFF402002080B500AF024802F0BC
:1026EC004DFD00BF80BD00BF7C01002080B500AF58
:1026FC004FF4805001F01CFE4FF4005001F018FE16
:10270C004FF4804001F014FE00BF80BD80B586B050
:10271C0000AF7860144A154BD31A7B617B693B611F
:10272C00134B1B68002B02D1114B124A1A60104B31
:10273C001A687B6813443A699A4207D204F028FA63
:10274C0003460C221A604FF0FF3309E0084B1B685C
:10275C00FB60074B1A687B681344054A1360FB68DF
:10276C0018461837BD4680BD0050002000040000FC
:10277C00180200208804002080B400AF00BFBD46C2
:10278C0080BC704780B592B000AF07F140030022C7
:10279C001A605A6007F1240300221A605A609A608A
:1027AC00DA601A615A619A613B1D20220021184699
:1027BC0004F0E6F9384B394A1A60374B47225A6015
:1027CC00354B00229A60344B6322DA60324B002284
:1027DC001A61314B00225A612F4B00229A612E480C
:1027EC0002F0FEFF0346002B01D0FFF743FE00234F
:1027FC003B6400237B6407F140031946264804F030
:10280C00DBF80346002B01D0FFF734FE60237B621C
:10281C000023BB620023FB6200233B6300237B632A
:10282C000023BB630023FB6307F12403002219463A
:10283C00194803F063FB0346002B01D0FFF71AFE87
:10284C0007F1240304221946134803F057FB0346EF
:10285C00002B01D0FFF70EFE00237B600023BB6032
:10286C000023FB6000233B6100237B614FF400538A
:10287C00BB6100233B623B1D1946074804F0FAF884
:10288C000346002B01D0FFF7F5FD034800F0B6F925
:10289C0000BF4837BD4680BD1C020020002C014003
:1028AC0080B58AB000AF07F1200300221A605A608D
:1028BC003B1D00221A605A609A60DA601A615A61F4
:1028CC009A61224B4FF080421A60204B47225A608B
:1028DC001E4B00229A601D4B44F61F62DA601B4BA4
:1028EC0000221A61194B00229A61184802F078FFF5
:1028FC000346002B01D0FFF7BDFD00233B620023F4
:10290C007B6207F120031946104804F055F8034682
:10291C00002B01D0FFF7AEFD60237B600023BB6072
:10292C000023FB6000237B613B1D002219460748F6
:10293C0003F0E4FA0346002B01D0FFF79BFD03489C
:10294C0000F05CF900BF2837BD4680BD6402002052
:10295C0080B586B000AF07F1100300221A605A60F0
:10296C003B4600221A605A609A60DA60254B264A70
:10297C001A60244B47225A60224B00229A60214B4A
:10298C004FF6FF72DA601F4B00221A611D4B0022BA
:10299C009A611C4803F016F80346002B01D0FFF790
:1029AC0069FD00233B6100237B6107F1100319468D
:1029BC00144804F001F80346002B01D0FFF75AFD30
:1029CC0000233B6001237B600023BB600023FB6082
:1029DC003B46002219460B4803F0F4F90346002B42
:1029EC0001D0FFF747FD3B4604221946054803F08A
:1029FC00E9F90346002B01D0FFF73CFD00BF183767
:102A0C00BD4680BDAC0200200004004080B588B0FB
:102A1C0000AF07F10C0300221A605A609A60DA606A
:102A2C001A613B1D00221A605A601E4B1E4A1A6026
:102A3C001C4B47225A601B4B00229A60194B4FF6D5
:102A4C00FF72DA60174B00221A61164B00229A6152
:102A5C00144802F0DAFD0346002B01D0FFF70AFD03
:102A6C000023FB6000233B6107F10C0319460D4862
:102A7C0003F006FB0346002B01D0FFF7FBFC002301
:102A8C007B600023BB603B1D1946064803F094FF96
:102A9C000346002B01D0FFF7EDFC00BF2037BD46ED
:102AAC0080BD00BFF40200200008004080B485B057
:102ABC0000AF78607B681B68124A93420CD1124BB2
:102ACC009B69114A43F4006393610F4B9B6903F4B8
:102ADC000063FB60FB6810E07B681B68B3F1804F00
:102AEC000BD1094BDB69084A43F00103D361064B58
:102AFC00DB6903F00103BB60BB6800BF1437BD4644
:102B0C0080BC7047002C01400010024080B58AB098
:102B1C0000AF786007F1140300221A605A609A60C3
:102B2C00DA607B681B681E4A934235D11D4BDB690A
:102B3C001C4A43F00203D3611A4BDB6903F0020316
:102B4C003B613B69174B9B69164A43F00803936141
:102B5C00144B9B6903F00803FB60FB6830237B611B
:102B6C000023BB610023FB6107F1140319460E48D7
:102B7C0001F012FA0D4B5B687B627B6A23F44063B5
:102B8C007B627B6A43F0E0637B627B6A43F40063A5
:102B9C007B62064A7B6A536000BF2837BD4680BD06
:102BAC000004004000100240000C014000000140F5
:102BBC0080B584B000AF78607B681B680D4A934287
:102BCC0013D10D4BDB690C4A43F00403D3610A4B60
:102BDC00DB6903F00403FB60FB68002200211E206C
:102BEC0000F03DFF1E2000F056FF00BF1037BD4621
:102BFC0080BD00BF000800400010024080B58AB0C4
:102C0C0000AF786007F1140300221A605A609A60D2
:102C1C00DA607B681B68284A934219D1274B9B6961
:102C2C00264A43F004039361244B9B6903F004038D
:102C3C003B613B694FF440737B610223BB61022310
:102C4C003B6207F1140319461D4801F0A5F92FE06A
:102C5C007B681B68B3F1804F2AD1184B9B69174ACC
:102C6C0043F004039361154B9B6903F00403FB6071
:102C7C00FB684FF400437B610223BB6102233B6280
:102C8C0007F1140319460E4801F086F90D4B5B68E9
:102C9C007B627B6A23F440737B627B6A43F0E06364
:102CAC007B627B6A43F480737B62064A7B6A536067
:102CBC0000BF2837BD4680BD002C014000100240EB
:102CCC000008014000000140FFF756FD0B480C497D
:102CDC000C4A002302E0D458C4500433C4188C426C
:102CEC00F9D3094A094C002301E013600432A242D3
:102CFC00FBD303F053FFFEF753FD70470000002099
:102D0C006400002060A600086400002088040020F5
:102D1C00FEE7000080B500AF084B1B68074A43F084
:102D2C0010031360032000F08FFE0F2000F008F852
:102D3C00FFF74CFC0023184680BD00BF002002406A
:102D4C0080B582B000AF7860124B1A68124B1B78BA
:102D5C0019464FF47A73B3FBF1F3B2FBF3F3184655
:102D6C0000F0A7FE0346002B01D001230EE07B6888
:102D7C000F2B0AD8002279684FF0FF3000F06FFE5D
:102D8C00064A7B681360002300E0012318460837CD
:102D9C00BD4680BD08000020100000200C00002063
:102DAC0080B400AF054B1B781A46054B1B681344C7
:102DBC00034A136000BFBD4680BC70471000002062
:102DCC003C03002080B400AF024B1B681846BD4684
:102DDC0080BC70473C03002080B584B000AF7860A5
:102DEC00FFF7F0FFB8607B68FB60FB68B3F1FF3F57
:102DFC0005D00A4B1B781A46FB681344FB6000BFD6
:102E0C00FFF7E0FF0246BB68D31AFA689A42F7D87C
:102E1C0000BF00BF1037BD4680BD00BF10000020B2
:102E2C0080B586B000AF78600023FB7500233B6152
:102E3C000023BB600023FB607B68002B01D10123C6
:102E4C00BEE07B689B68002B7B689B6A002B09D1DA
:102E5C007B680022DA627B68002283F82420786881
:102E6C00FEF700FB786800F073FC0346FB757B688B
:102E7C009B6A03F01003002B40F09980FB7D002B24
:102E8C0040F095807B689B6A23F4885323F00203FF
:102E9C0043F002027B689A627B685A687B68DB6944
:102EAC001A437B681B7B5B001343BA681343BB60FC
:102EBC007B689B68B3F5807F03D07B689B68012B94
:102ECC0002D14FF4807300E000233A6913433B6155
:102EDC007B681B7D012B19D17B681B7B002B09D1D7
:102EEC007B689B69013B5A033B69134343F40063C2
:102EFC003B610BE07B689B6A43F020027B689A6223
:102F0C007B68DB6A43F001027B68DA627B681B68D2
:102F1C005B6823F469417B681B683A690A435A6011
:102F2C007B681B689A68284B13407A681268B968EA
:102F3C000B4393607B689B68B3F5807F03D07B6801
:102F4C009B68012B04D17B681B69013B1B05FB6053
:102F5C007B681B68DB6A23F470017B681B68FA686A
:102F6C000A43DA627B681B689A68184B1340BA688C
:102F7C009A420BD17B680022DA627B689B6A23F051
:102F8C00030343F001027B689A6218E07B689B6A3A
:102F9C0023F0120343F010027B689A627B68DB6AB1
:102FAC0043F001027B68DA620123FB7507E07B6862
:102FBC009B6A43F010027B689A620123FB75FB7DD0
:102FCC0018461837BD4680BDFDF7E1FFFE0E1FFF0A
:102FDC0080B584B000AF78600023FB737B6893F8F6
:102FEC002430012B01D10223A0E07B68012283F85D
:102FFC002420786800F052FB0346FB73FB7B002B0C
:10300C0040F08F807B689B6A23F4706323F001038C
:10301C0043F480727B689A627B681B68454A9342D2
:10302C0005D1454B5B6803F47023002B15D17B68ED
:10303C009B6A23F480127B689A627B681B685B68CE
:10304C0003F48063002B26D07B689B6A23F44053E7
:10305C0043F480527B689A621DE07B689B6A43F460
:10306C0080127B689A627B681B68334A934204D057
:10307C007B681B682F4A93420DD12F4B5B6803F47E
:10308C008063002B07D07B689B6A23F4405343F486
:10309C0080527B689A627B689B6A03F48053002B96
:1030AC0006D07B68DB6A23F006027B68DA6202E0FA
:1030BC007B680022DA627B68002283F824207B681C
:1030CC001B686FF002021A607B681B685A687B6889
:1030DC001B6842F020025A607B681B689B6803F4F3
:1030EC006023B3F5602F13D17B681B68114A9342A0
:1030FC0005D1114B5B6803F47023002B08D17B685E
:10310C001B689A687B681B6842F4A0029A600CE00A
:10311C007B681B689A687B681B6842F480129A6013
:10312C0003E07B68002283F82420FB7B18461037D1
:10313C00BD4680BD002801400024014080B586B00A
:10314C0000AFF860B9607A600023FB75FB681B6800
:10315C00644A934204D0FB681B68634A934206D1CD
:10316C00604B5B6803F47023002B40F0B380FB686A
:10317C0093F82430012B01D10223AEE0FB6801222D
:10318C0083F82420F86800F089FA0346FB75FB7D70
:10319C00002B40F09A80FB689B6A23F4706323F049
:1031AC00010343F48072FB689A62FB681B684E4A09
:1031BC00934205D14B4B5B6803F47023002B15D164
:1031CC00FB689B6A23F48012FB689A62FB681B689D
:1031DC005B6803F48063002B26D0FB689B6A23F4A6
:1031EC00405343F48052FB689A621DE0FB689B6A73
:1031FC0043F48012FB689A62FB681B68394A93425D
:10320C0004D0FB681B68384A93420DD1354B5B6880
:10321C0003F48063002B07D0FB689B6A23F44053B4
:10322C0043F48052FB689A62FB689B6A03F48053F8
:10323C00002B06D0FB68DB6A23F00602FB68DA621F
:10324C0002E0FB680022DA62FB68002283F824208B
:10325C00FB681B6A254A9A62FB681B6A244ADA627D
:10326C00FB681B6A234A1A63FB681B686FF0020237
:10327C001A60FB681B689A68FB681B6842F48072D2
:10328C009A60FB68186AFB681B684C331946BA686D
:10329C007B6800F075FCFB681B689B6803F460237B
:1032AC00B3F5602F08D1FB681B689A68FB681B6834
:1032BC0042F4A0029A600FE0FB681B689A68FB68F6
:1032CC001B6842F480129A6006E0FB68002283F8C7
:1032DC00242001E00123FB75FB7D18461837BD4601
:1032EC0080BD00BF0024014000280140DF370008EA
:1032FC005B3800087738000880B584B000AF786080
:10330C007B681B681B68FB607B681B685B68BB6029
:10331C00BB6803F02003002B3ED0FB6803F00203D4
:10332C00002B39D07B689B6A03F01003002B05D16E
:10333C007B689B6A43F400727B689A627B681B68AB
:10334C009B6803F46023B3F5602F1DD17B681B7B56
:10335C00002B19D17B681B685A687B681B6822F0AC
:10336C0020025A607B689B6A23F480727B689A62A5
:10337C007B689B6A03F48053002B05D17B689B6AA6
:10338C0043F001027B689A627868FEF779FF7B68EC
:10339C001B686FF012021A60BB6803F08003002BED
:1033AC004DD0FB6803F00403002B48D07B689B6A6C
:1033BC0003F01003002B05D17B689B6A43F4005289
:1033CC007B689A627B681B689B6803F4E043B3F5E7
:1033DC00E04F12D07B681B685B6803F48063002BA2
:1033EC0025D17B681B689B6803F46023B3F5602FC1
:1033FC001DD17B681B7B002B19D17B681B685A681D
:10340C007B681B6822F080025A607B689B6A23F4FD
:10341C0080527B689A627B689B6A03F48073002BF2
:10342C0005D17B689B6A43F001027B689A627868DD
:10343C0000F035FA7B681B686FF00C021A60BB68F1
:10344C0003F04003002B12D0FB6803F00103002BA8
:10345C000DD07B689B6A43F480327B689A627868F3
:10346C0000F012F87B681B686FF001021A6000BF55
:10347C001037BD4680BD80B483B000AF786000BF0C
:10348C000C37BD4680BC704780B483B000AF786009
:10349C0000BF0C37BD4680BC704780B483B000AF12
:1034AC00786000BF0C37BD4680BC704780B485B0D7
:1034BC0000AF786039600023FB730023BB607B682E
:1034CC0093F82430012B01D10223DCE07B6801222C
:1034DC0083F824203B685B68062B1CD87B681B6830
:1034EC00596B3B685A6813469B001344053B1F22DB
:1034FC0002FA03F3DB4319403B6818683B685A68CF
:10350C0013469B001344053B00FA03F27B681B68CF
:10351C000A435A633CE03B685B680C2B1CD87B6805
:10352C001B68196B3B685A6813469B001344233B7A
:10353C001F2202FA03F3DB4319403B6818683B680F
:10354C005A6813469B001344233B00FA03F27B6832
:10355C001B680A431A631BE07B681B68D96A3B68CB
:10356C005A6813469B001344413B1F2202FA03F393
:10357C00DB4319403B6818683B685A6813469B004C
:10358C001344413B00FA03F27B681B680A43DA627E
:10359C003B681B68092B1CD97B681B68D9683B6886
:1035AC001A6813465B0013441E3B072202FA03F30E
:1035BC00DB4319403B6898683B681A6813465B000C
:1035CC0013441E3B00FA03F27B681B680A43DA6063
:1035DC0019E07B681B6819693B681A6813465B0025
:1035EC001344072202FA03F3DB4319403B68986843
:1035FC003B681A6813465B00134400FA03F27B68BD
:10360C001B680A431A613B681B68102B03D03B688C
:10361C001B68112B32D17B681B681D4A934225D144
:10362C007B681B689B6803F40003002B26D17B6826
:10363C001B689A687B681B6842F400029A603B68BE
:10364C001B68102B1AD1134B1B68134AA2FB0323C4
:10365C009A0C13469B0013445B00BB6002E0BB68F2
:10366C00013BBB60BB68002BF9D107E07B689B6A10
:10367C0043F020027B689A620123FB737B68002273
:10368C0083F82420FB7B18461437BD4680BC70475A
:10369C00002401400800002083DE1B4380B584B069
:1036AC0000AF78600023FB600023BB607B681B6865
:1036BC009B6803F00103012B40D07B681B689A6860
:1036CC007B681B6842F001029A601F4B1B681F4A03
:1036DC00A2FB03239B0CBB6002E0BB68013BBB60FD
:1036EC00BB68002BF9D1FFF76DFBF8601FE0FFF70B
:1036FC0069FB0246FB68D31A022B18D97B681B683E
:10370C009B6803F00103012B11D07B689B6A43F08B
:10371C0010027B689A627B68DB6A43F001027B686B
:10372C00DA627B68002283F82420012307E07B689F
:10373C001B689B6803F00103012BD8D100231846AA
:10374C001037BD4680BD00BF0800002083DE1B4340
:10375C0080B584B000AF78600023FB607B681B6889
:10376C009B6803F00103012B2ED17B681B689A68C0
:10377C007B681B6822F001029A60FFF723FBF8605C
:10378C001BE0FFF71FFB0246FB68D31A022B14D970
:10379C007B681B689B6803F00103012B0DD17B68D0
:1037AC009B6A43F010027B689A627B68DB6A43F089
:1037BC0001027B68DA62012307E07B681B689B6867
:1037CC0003F00103012BDCD0002318461037BD4653
:1037DC0080BD80B584B000AF78607B685B6AFB60AD
:1037EC00FB689B6A03F05003002B27D1FB689B6A94
:1037FC0043F40072FB689A62FB681B689B6803F4D5
:10380C006023B3F5602F15D1FB681B7B002B11D106
:10381C00FB689B6A23F48072FB689A62FB689B6A64
:10382C0003F48053002B05D1FB689B6A43F0010223
:10383C00FB689A62F868FEF723FD04E0FB681B6ADC
:10384C001B6B7868984700BF1037BD4680BD80B5AC
:10385C0084B000AF78607B685B6AFB60F868FFF748
:10386C000AFE00BF1037BD4680BD80B584B000AFE6
:10387C0078607B685B6AFB60FB689B6A43F0400284
:10388C00FB689A62FB68DB6A43F00402FB68DA624D
:10389C00F868FFF702FE00BF1037BD4680BD80B44C
:1038AC0083B000AF786000BF0C37BD4680BC70475A
:1038BC0080B485B000AF78607B6803F00703FB60D1
:1038CC000C4BDB68BB60BA684FF6FF031340BB6060
:1038DC00FB681A02BB68134343F0BF6343F4003325
:1038EC00BB60044ABB68D36000BF1437BD4680BCC4
:1038FC00704700BF00ED00E080B400AF044BDB6804
:10390C001B0A03F007031846BD4680BC704700BF76
:10391C0000ED00E080B483B000AF0346FB7197F973
:10392C000730002B0BDBFB7903F01F02064997F9DC
:10393C0007305B09012000FA02F241F8232000BF96
:10394C000C37BD4680BC704700E100E080B483B00A
:10395C0000AF03463960FB7197F90730002B0ADB87
:10396C003B68DAB20C4997F907301201D2B20B441A
:10397C0083F800230AE03B68DAB20849FB7903F0CC
:10398C000F03043B1201D2B20B441A7600BF0C3762
:10399C00BD4680BC704700BF00E100E000ED00E0D8
:1039AC0080B489B000AFF860B9607A60FB6803F04E
:1039BC000703FB61FB69C3F10703042B28BF042336
:1039CC00BB61FB690433062B02D9FB69033B00E0A6
:1039DC0000237B614FF0FF32BB6902FA03F3DA4339
:1039EC00BB681A407B699A404FF0FF317B6901FA42
:1039FC0003F3D9437B680B40134318462437BD4669
:103A0C0080BC704780B582B000AF78607B68013BAA
:103A1C00B3F1807F01D301230FE00A4A7B68013B9D
:103A2C0053600F214FF0FF30FFF790FF054B002242
:103A3C009A60044B07221A60002318460837BD46CB
:103A4C0080BD00BF10E000E080B582B000AF7860B0
:103A5C007868FFF72DFF00BF0837BD4680BD80B5E5
:103A6C0086B000AF0346B9607A60FB7300237B61BC
:103A7C00FFF742FF78617A68B9687869FFF790FFC1
:103A8C00024697F90F3011461846FFF75FFF00BF4B
:103A9C001837BD4680BD80B582B000AF0346FB71C0
:103AAC0097F907301846FFF735FF00BF0837BD46BA
:103ABC0080BD80B582B000AF78607868FFF7A2FF58
:103ACC00034618460837BD4680BD000080B485B05B
:103ADC0000AF78600023FB607B68002B01D10123D1
:103AEC0043E07B681B681A46224B1344224AA2FB14
:103AFC0003231B099A007B681A647B681F4ADA63EC
:103B0C007B68022283F821207B681B681B68FB60A2
:103B1C00FB6823F47F5323F03003FB607B685A6807
:103B2C007B689B681A437B68DB681A437B681B695C
:103B3C001A437B685B691A437B689B691A437B68F1
:103B4C00DB691343FA681343FB607B681B68FA68F4
:103B5C001A607B6800229A637B68012283F821201B
:103B6C007B68002283F82020002318461437BD46BA
:103B7C0080BC7047F8FFFDBFCDCCCCCC0000024020
:103B8C0080B586B000AFF860B9607A603B60002306
:103B9C00FB75FB6893F82030012B01D102234BE01D
:103BAC00FB68012283F82020FB6893F82130DBB2FC
:103BBC00012B3AD1FB68022283F82120FB680022FA
:103BCC009A63FB681B681A68FB681B6822F0010289
:103BDC001A603B687A68B968F86800F0AFF9FB685E
:103BEC00DB6A002B08D0FB681B681A68FB681B6833
:103BFC0042F00E021A600FE0FB681B681A68FB6843
:103C0C001B6822F004021A60FB681B681A68FB68C8
:103C1C001B6842F00A021A60FB681B681A68FB6892
:103C2C001B6842F001021A6005E0FB68002283F871
:103C3C0020200223FB75FB7D18461837BD4680BD3E
:103C4C0080B584B000AF78600023FB737B6893F879
:103C5C002130DBB2022B05D07B6804229A6301234E
:103C6C00FB7351E07B681B681A687B681B6822F049
:103C7C000E021A607B681B681A687B681B6822F04E
:103C8C0001021A607B681B68224A934229D07B6828
:103C9C001B68214A934222D07B681B681F4A9342BF
:103CAC001AD07B681B681E4A934212D07B681B6833
:103CBC001C4A93420AD07B681B681B4A934202D170
:103CCC004FF480130EE04FF080730BE04FF4803311
:103CDC0008E04FF4805305E04FF4807302E01023AA
:103CEC0000E00123114A53607B68012283F82120F4
:103CFC007B68002283F820207B685B6B002B03D051
:103D0C007B685B6B78689847FB7B18461037BD4621
:103D1C0080BD00BF080002401C0002403000024081
:103D2C0044000240580002406C0002400000024077
:103D3C0080B584B000AF78607B68DB6B1B68FB6080
:103D4C007B681B681B68BB607B681B6C04229A40F9
:103D5C00FB681340002B4FD0BB6803F00403002B0F
:103D6C004AD07B681B681B6803F02003002B07D12B
:103D7C007B681B681A687B681B6822F004021A6057
:103D8C007B681B68664A934229D07B681B68654A2E
:103D9C00934222D07B681B68634A93421AD07B689B
:103DAC001B68624A934212D07B681B68604A93423C
:103DBC000AD07B681B685F4A934202D14FF48003A0
:103DCC000EE04FF080630BE04FF4802308E04FF4DB
:103DDC00804305E04FF4806302E0402300E00423BD
:103DEC00554A53607B68DB6A002B00F094807B683B
:103DFC00DB6A786898478EE07B681B6C02229A40DD
:103E0C00FB681340002B56D0BB6803F00203002B59
:103E1C0051D07B681B681B6803F02003002B0BD16F
:103E2C007B681B681A687B681B6822F00A021A60A0
:103E3C007B68012283F821207B681B68384A9342F7
:103E4C0029D07B681B68374A934222D07B681B6859
:103E5C00354A93421AD07B681B68344A934212D07D
:103E6C007B681B68324A93420AD07B681B68314AD4
:103E7C00934202D14FF400130EE04FF000730BE0AD
:103E8C004FF4003308E04FF4005305E04FF4007397
:103E9C0002E0202300E00223274A53607B680022C3
:103EAC0083F820207B689B6A002B34D07B689B6A4C
:103EBC00786898472FE07B681B6C08229A40FB6857
:103ECC001340002B28D0BB6803F00803002B23D031
:103EDC007B681B681A687B681B6822F00E021A60EC
:103EEC007B681A6C7B68DB6B012101FA02F25A6069
:103EFC007B6801229A637B68012283F821207B680E
:103F0C00002283F820207B681B6B002B04D07B687D
:103F1C001B6B7868984700BF00BF1037BD4680BD4B
:103F2C00080002401C0002403000024044000240E5
:103F3C00580002406C0002400000024080B485B082
:103F4C0000AFF860B9607A603B60FB681A6CFB6884
:103F5C00DB6B012101FA02F25A60FB681B683A68BC
:103F6C005A60FB685B68102B08D1FB681B687A6889
:103F7C009A60FB681B68BA68DA6007E0FB681B682C
:103F8C00BA689A60FB681B687A68DA6000BF1437FD
:103F9C00BD4680BC7047000080B48BB000AF786029
:103FAC00396000237B6200233B6269E101227B6A5A
:103FBC0002FA03F3FB613B681B68FA691340BB61AF
:103FCC00BA69FB699A4240F058813B685B689A4A2F
:103FDC0093425ED0984A934275D8984A934258D0EF
:103FEC00964A93426FD8964A934252D0944A93423F
:103FFC0069D8944A93424CD0924A934263D8924ADD
:10400C00934246D0904A93425DD8122B2AD8122B59
:10401C0059D801A252F823F09F40000879400008BB
:10402C008B400008CD400008D3400008D340000866
:10403C00D3400008D3400008D3400008D340000808
:10404C00D3400008D3400008D3400008D3400008F8
:10405C00D3400008D3400008D3400008814000083A
:10406C0095400008794A934213D02CE03B68DB68FA
:10407C003B6229E03B68DB6804333B6224E03B682D
:10408C00DB6808333B621FE03B68DB680C333B6248
:10409C001AE03B689B68002B02D104233B6213E0BF
:1040AC003B689B68012B05D108233B627B68FA694E
:1040BC001A6109E008233B627B68FA695A6103E0E4
:1040CC0000233B6200E000BFBB69FF2B01D87B687B
:1040DC0001E07B6804337B61BB69FF2B02D87B6AF0
:1040EC009B0002E07B6A083B9B003B617B691A6882
:1040FC000F213B6901FA03F3DB431A40396A3B6930
:10410C0001FA03F31A437B691A603B685B6803F09E
:10411C008053002B00F0B1804D4B9B694C4A43F00F
:10412C00010393614A4B9B6903F00103BB60BB68BD
:10413C00484A7B6A9B08023352F82330FB607B6A47
:10414C0003F003039B000F2202FA03F3DB43FA682C
:10415C001340FB607B68404A934213D07B683F4A14
:10416C0093420DD07B683E4A934207D07B683D4A10
:10417C00934201D1032306E0042304E0022302E06E
:10418C00012300E000237A6A02F0030292009340BC
:10419C00FA681343FB602F497B6A9B080233FA6869
:1041AC0041F823203B685B6803F48013002B06D096
:1041BC002D4B9A682C49BB6913438B6006E02A4B44
:1041CC009A68BB69DB43284913408B603B685B688A
:1041DC0003F40013002B06D0234BDA682249BB6989
:1041EC001343CB6006E0204BDA68BB69DB431E4906
:1041FC001340CB603B685B6803F40033002B06D0A4
:10420C00194B5A681849BB6913434B6006E0164BAF
:10421C005A68BB69DB43144913404B603B685B68CD
:10422C0003F48033002B21D00F4B1A680E49BB6965
:10423C0013430B6021E000BF00003210000031106E
:10424C0000002210000021100000121000001110BC
:10425C00001002400000014000080140000C014029
:10426C000010014000140140000401400B4B1A687F
:10427C00BB69DB43094913400B607B6A01337B62EA
:10428C003B681A687B6A22FA03F3002B7FF48EAE2C
:10429C0000BF00BF2C37BD4680BC704700040140F6
:1042AC0080B485B000AF78600B467B807B689A68E1
:1042BC007B881340002B02D00123FB7301E0002309
:1042CC00FB73FB7B18461437BD4680BC704780B42B
:1042DC0083B000AF78600B467B8013467B707B7895
:1042EC00002B03D07A887B681A6103E07B881A0460
:1042FC007B681A6100BF0C37BD4680BC704780B428
:10430C0085B000AF78600B467B807B68DB68FB6018
:10431C007A88FB6813401A04FB68D9437B880B40EE
:10432C001A437B681A6100BF1437BD4680BC7047C6
:10433C0080B582B000AF0346FB80084B5A69FB88FE
:10434C001340002B06D0054AFB885361FB881846A6
:10435C00FEF70CF800BF0837BD4680BD00040140D5
:10436C0080B586B000AF78607B68002B01D101234B
:10437C0072E27B681B6803F00103002B00F087805E
:10438C00924B5B6803F00C03042B0CD08F4B5B68D7
:10439C0003F00C03082B12D18C4B5B6803F48033B5
:1043AC00B3F5803F0BD1894B1B6803F40033002B12
:1043BC006CD07B685B68002B68D101234CE27B6876
:1043CC005B68B3F5803F06D1804B1B687F4A43F492
:1043DC00803313602EE07B685B68002B0CD17B4B29
:1043EC001B687A4A23F480331360784B1B68774A36
:1043FC0023F4802313601DE07B685B68B3F5A02F6A
:10440C000CD1724B1B68714A43F4802313606F4BC1
:10441C001B686E4A43F4803313600BE06B4B1B68D4
:10442C006A4A23F480331360684B1B68674A23F491
:10443C00802313607B685B68002B13D0FEF7C2FCF3
:10444C00386108E0FEF7BEFC02463B69D31A642BC8
:10445C0001D9032300E25D4B1B6803F40033002BEE
:10446C00F0D014E0FEF7AEFC386108E0FEF7AAFCD1
:10447C0002463B69D31A642B01D90323ECE1534B5D
:10448C001B6803F40033002BF0D100E000BF7B6805
:10449C001B6803F00203002B63D04C4B5B6803F0EA
:1044AC000C03002B0BD0494B5B6803F00C03082B5F
:1044BC001CD1464B5B6803F48033002B16D1434B65
:1044CC001B6803F00203002B05D07B681B69012BD2
:1044DC0001D00123C0E13D4B1B6823F0F8027B683F
:1044EC005B69DB00394913430B603AE07B681B695D
:1044FC00002B20D0364B01221A60FEF763FC38618A
:10450C0008E0FEF75FFC02463B69D31A022B01D987
:10451C000323A1E12D4B1B6803F00203002BF0D009
:10452C002A4B1B6823F0F8027B685B69DB00274988
:10453C0013430B6015E0264B00221A60FEF742FC79
:10454C00386108E0FEF73EFC02463B69D31A022BA9
:10455C0001D9032380E11D4B1B6803F00203002BE0
:10456C00F0D17B681B6803F00803002B3AD07B6802
:10457C009B69002B19D0174B01221A60FEF722FC05
:10458C00386108E0FEF71EFC02463B69D31A022B89
:10459C0001D9032360E10D4B5B6A03F00203002B8E
:1045AC00F0D0012000F09CFA1CE00A4B00221A60AB
:1045BC00FEF708FC38610FE0FEF704FC02463B698D
:1045CC00D31A022B08D9032346E100BF0010024086
:1045DC000000424280044242924B5B6A03F00203A9
:1045EC00002BE9D17B681B6803F00403002B00F05F
:1045FC00A6800023FB758B4BDB6903F08053002BEB
:10460C000DD1884BDB69874A43F08053D361854BCE
:10461C00DB6903F08053BB60BB680123FB75824BE5
:10462C001B6803F48073002B18D17F4B1B687E4AE8
:10463C0043F480731360FEF7C5FB386108E0FEF7A6
:10464C00C1FB02463B69D31A642B01D9032303E156
:10465C00754B1B6803F48073002BF0D07B68DB6810
:10466C00012B06D16F4B1B6A6E4A43F00103136298
:10467C002DE07B68DB68002B0CD16A4B1B6A694A06
:10468C0023F001031362674B1B6A664A23F0040391
:10469C0013621CE07B68DB68052B0CD1614B1B6A39
:1046AC00604A43F0040313625E4B1B6A5D4A43F09D
:1046BC00010313620BE05B4B1B6A5A4A23F00103A4
:1046CC001362584B1B6A574A23F0040313627B682E
:1046DC00DB68002B15D0FEF775FB38610AE0FEF79E
:1046EC0071FB02463B69D31A41F28832934201D9DD
:1046FC000323B1E04B4B1B6A03F00203002BEED0FB
:10470C0014E0FEF75FFB38610AE0FEF75BFB024644
:10471C003B69D31A41F28832934201D903239BE0BF
:10472C00404B1B6A03F00203002BEED1FB7D012BE7
:10473C0005D13C4BDB693B4A23F08053D3617B684A
:10474C00DB69002B00F08780364B5B6803F00C03B1
:10475C00082B61D07B68DB69022B46D1334B0022DE
:10476C001A60FEF72FFB386108E0FEF72BFB0246C0
:10477C003B69D31A022B01D903236DE0294B1B682B
:10478C0003F00073002BF0D17B681B6AB3F5803FFC
:10479C0008D1244B5B6823F400327B689B68214969
:1047AC0013434B601F4B5B6823F474127B68196ACC
:1047BC007B685B6A0B431B4913434B601B4B012209
:1047CC001A60FEF7FFFA386108E0FEF7FBFA0246C2
:1047DC003B69D31A022B01D903233DE0114B1B6813
:1047EC0003F00073002BF0D035E0104B00221A6060
:1047FC00FEF7E8FA386108E0FEF7E4FA02463B6996
:10480C00D31A022B01D9032326E0064B1B6803F0B5
:10481C000073002BF0D11EE07B68DB69012B07D104
:10482C00012319E000100240007000406000424279
:10483C000B4B5B68FB60FB6803F480327B681B6A84
:10484C009A4206D1FB6803F470127B685B6A9A4249
:10485C0001D0012300E0002318461837BD4680BD67
:10486C000010024080B584B000AF786039607B687E
:10487C00002B01D10123D0E06A4B1B6803F0070326
:10488C003A689A4210D9674B1B6823F007026549B6
:10489C003B6813430B60634B1B6803F007033A68D8
:1048AC009A4201D00123B8E07B681B6803F0020335
:1048BC00002B20D07B681B6803F00403002B05D071
:1048CC00594B5B68584A43F4E06353607B681B6840
:1048DC0003F00803002B05D0534B5B68524A43F49A
:1048EC0060535360504B5B6823F0F0027B689B680D
:1048FC004D4913434B607B681B6803F00103002B8D
:10490C0040D07B685B68012B07D1474B1B6803F4D5
:10491C000033002B15D101237FE07B685B68022BF1
:10492C0007D1414B1B6803F00073002B09D1012305
:10493C0073E03D4B1B6803F00203002B01D10123F4
:10494C006BE0394B5B6823F003027B685B6836498C
:10495C0013434B60FEF736FAF8600AE0FEF732FAC2
:10496C000246FB68D31A41F28832934201D90323E1
:10497C0053E02D4B5B6803F00C027B685B689B007B
:10498C009A42EBD1274B1B6803F007033A689A4213
:10499C0010D2244B1B6823F0070222493B681343B7
:1049AC000B60204B1B6803F007033A689A4201D056
:1049BC00012332E07B681B6803F00403002B08D052
:1049CC00194B5B6823F4E0627B68DB681649134380
:1049DC004B607B681B6803F00803002B09D0124B5B
:1049EC005B6823F460527B681B69DB000E49134340
:1049FC004B6000F021F802460B4B5B681B0903F07F
:104A0C000F030A49CB5C22FA03F3094A1360094BE2
:104A1C001B681846FEF794F9002318461037BD465C
:104A2C0080BD00BF002002400010024030A20008F0
:104A3C00080000200C00002080B487B000AF0023D9
:104A4C00FB600023BB6000237B6100237B600023A1
:104A5C003B611E4B5B68FB60FB6803F00C03042B93
:104A6C0002D0082B03D027E0194B3B6127E0FB68F1
:104A7C009B0C03F00F03174AD35C7B60FB6803F4B9
:104A8C008033002B10D0114B5B685B0C03F00103DF
:104A9C00114AD35CBB607B680D4A03FB02F2BB6816
:104AAC00B2FBF3F37B6104E07B680C4A02FB03F37B
:104ABC007B617B693B6102E0054B3B6100BF3B695D
:104ACC0018461C37BD4680BC704700BF0010024022
:104ADC0000127A0040A2000850A2000800093D0014
:104AEC0080B485B000AF78600A4B1B680A4AA2FB01
:104AFC0003235B0A7A6802FB03F3FB6000BFFB68CD
:104B0C005A1EFA60002BF9D100BF00BF1437BD4606
:104B1C0080BC704708000020D34D621080B586B071
:104B2C0000AF786000233B610023FB607B681B684F
:104B3C0003F00103002B7DD00023FB754F4BDB6989
:104B4C0003F08053002B0DD14C4BDB694B4A43F0E7
:104B5C008053D361494BDB6903F08053BB60BB6866
:104B6C000123FB75464B1B6803F48073002B18D193
:104B7C00434B1B68424A43F480731360FEF722F9DF
:104B8C00386108E0FEF71EF902463B69D31A642B24
:104B9C0001D903236DE03A4B1B6803F48073002B9F
:104BAC00F0D0364B1B6A03F44073FB60FB68002BA0
:104BBC002ED07B685B6803F44073FA689A4227D066
:104BCC002E4B1B6A23F44073FB602E4B01221A60A0
:104BDC002C4B00221A60294AFB681362FB6803F015
:104BEC000103002B14D0FEF7EDF838610AE0FEF754
:104BFC00E9F802463B69D31A41F28832934201D953
:104C0C00032336E01D4B1B6A03F00203002BEED08E
:104C1C001A4B1B6A23F440727B685B681749134379
:104C2C000B62FB7D012B05D1144BDB69134A23F07E
:104C3C008053D3617B681B6803F00203002B08D000
:104C4C000E4B5B6823F440427B689B680B49134313
:104C5C004B607B681B6803F01003002B08D0074BDC
:104C6C005B6823F480027B68DB68044913434B6068
:104C7C00002318461837BD4680BD00BF0010024007
:104C8C00007000404004424280B582B000AF7860B2
:104C9C007B68002B01D1012376E07B685B6A002BDB
:104CAC0008D17B685B68B3F5827F09D07B680022F2
:104CBC00DA6105E07B6800221A617B6800225A6188
:104CCC007B6800229A627B6893F85130DBB2002B30
:104CDC0006D17B68002283F850207868FDF706FC2B
:104CEC007B68022283F851207B681B681A687B68FA
:104CFC001B6822F040021A607B685B6803F48272C6
:104D0C007B689B6803F404431A437B68DB6803F4F9
:104D1C0000631A437B681B6903F002031A437B6828
:104D2C005B6903F001031A437B689B6903F400730E
:104D3C001A437B68DB6903F038031A437B681B6AF0
:104D4C0003F0800342EA03017B689B6A03F4005280
:104D5C007B681B680A431A607B689B691A0C7B682A
:104D6C001B6802F004025A607B681B68DA697B6876
:104D7C001B6822F40062DA617B6800225A657B684A
:104D8C00012283F85120002318460837BD4680BD08
:104D9C0080B588B000AFF860B9603B601346FB800B
:104DAC00FEF710F8F861FB887B83FB6893F85130B1
:104DBC00DBB2012B01D002232AE1BB68002B02D00D
:104DCC00FB88002B01D1012322E1FB6893F85030C2
:104DDC00012B01D102231BE1FB68012283F8502037
:104DEC00FB68032283F85120FB6800225A65FB689C
:104DFC00BA681A63FB68FA889A86FB68FA88DA86BE
:104E0C00FB6800229A63FB6800229A87FB680022E9
:104E1C00DA87FB6800225A64FB6800221A64FB687C
:104E2C009B68B3F5004F0FD1FB681B681A68FB68D1
:104E3C001B6822F040021A60FB681B681A68FB684A
:104E4C001B6842F480421A60FB681B681B6803F005
:104E5C004003402B07D0FB681B681A68FB681B6873
:104E6C0042F040021A60FB68DB68B3F5006F52D168
:104E7C00FB685B68002B02D07B8B012B45D1FB6858
:104E8C001B6B1A88FB681B68DA60FB681B6B9A1C2F
:104E9C00FB681A63FB68DB8E9BB2013B9AB2FB6822
:104EAC00DA8632E0FB681B689B6803F00203022B76
:104EBC0012D1FB681B6B1A88FB681B68DA60FB68F5
:104ECC001B6B9A1CFB681A63FB68DB8E9BB2013B65
:104EDC009AB2FB68DA8618E0FDF774FF0246FB69AC
:104EEC00D31A3A689A4203D83B68B3F1FF3F02D118
:104EFC003B68002B09D1FB68012283F85120FB6829
:104F0C00002283F85020032382E0FB68DB8E9BB2E7
:104F1C00002BC7D153E0FB685B68002B02D07B8B66
:104F2C00012B47D1FB681A6BFB681B680C3312789A
:104F3C001A70FB681B6B5A1CFB681A63FB68DB8ED0
:104F4C009BB2013B9AB2FB68DA8633E0FB681B68C4
:104F5C009B6803F00203022B13D1FB681A6BFB68EE
:104F6C001B680C3312781A70FB681B6B5A1CFB689D
:104F7C001A63FB68DB8E9BB2013B9AB2FB68DA8644
:104F8C0018E0FDF71FFF0246FB69D31A3A689A42F4
:104F9C0003D83B68B3F1FF3F02D13B68002B09D12A
:104FAC00FB68012283F85120FB68002283F8502013
:104FBC0003232DE0FB68DB8E9BB2002BC6D1FA6974
:104FCC003968F86800F0F0FA0346002B02D0FB6851
:104FDC0020225A65FB689B68002B0AD100237B6159
:104FEC00FB681B68DB687B61FB681B689B687B61EB
:104FFC007B69FB68012283F85120FB68002283F84F
:10500C005020FB685B6D002B01D0012300E00023D6
:10501C0018462037BD4680BD80B584B000AFF8601F
:10502C00B9601346FB80FB6893F85130DBB2012B5F
:10503C0001D0022397E0BB68002B02D0FB88002B29
:10504C0001D101238FE0FB6893F85030012B01D183
:10505C00022388E0FB68012283F85020FB680322BE
:10506C0083F85120FB6800225A65FB68BA681A6302
:10507C00FB68FA889A86FB68FA88DA86FB68002255
:10508C009A63FB6800225A64FB6800221A64FB686E
:10509C0000229A87FB680022DA87FB689B68B3F5CD
:1050AC00004F0FD1FB681B681A68FB681B6822F065
:1050BC0040021A60FB681B681A68FB681B6842F4A4
:1050CC0080421A60FB689B6C294ADA62FB689B6C15
:1050DC00284A9A62FB689B6C274A1A63FB689B6C94
:1050EC0000225A63FB68986CFB681B6B1946FB68C3
:1050FC001B680C331A46FB68DB8E9BB2FEF740FD37
:10510C000346002B0BD0FB685B6D43F01002FB6871
:10511C005A65FB68002283F85020012323E0FB68CA
:10512C001B681B6803F04003402B07D0FB681B680F
:10513C001A68FB681B6842F040021A60FB68002288
:10514C0083F85020FB681B685A68FB681B6842F0A8
:10515C0020025A60FB681B685A68FB681B6842F0A7
:10516C0002025A60002318461037BD4680BD00BFAE
:10517C001F540008795300083B54000880B588B0D0
:10518C0000AF78607B681B685B68FB617B681B68A1
:10519C009B68BB61BB699B0903F00103002B0FD11A
:1051AC00BB6903F00103002B0AD0FB699B0903F0D8
:1051BC000103002B04D07B681B6C78689847BEE019
:1051CC00BB695B0803F00103002B0AD0FB69DB0908
:1051DC0003F00103002B04D07B685B6C7868984764
:1051EC00ADE0BB695B0903F00103002B06D1BB6981
:1051FC009B0903F00103002B00F0A180FB695B0904
:10520C0003F00103002B00F09A80BB699B0903F0AB
:10521C000103002B23D07B6893F85130DBB2032BB6
:10522C0011D07B685B6D43F004027B685A650023E8
:10523C007B617B681B68DB687B617B681B689B6898
:10524C007B617B690BE000233B617B681B68DB683F
:10525C003B617B681B689B683B613B696FE0BB698A
:10526C005B0903F00103002B14D07B685B6D43F0EA
:10527C0001027B685A650023FB607B681B689B6896
:10528C00FB607B681B681A687B681B6822F0400215
:10529C001A60FB687B685B6D002B4FD07B681B68CA
:1052AC005A687B681B6822F0E0025A607B68012216
:1052BC0083F85120FB6903F00203002B04D1FB6936
:1052CC0003F00103002B34D07B681B685A687B68A1
:1052DC001B6822F003025A607B68DB6C002B11D038
:1052EC007B68DB6C174A5A637B68DB6C1846FEF7ED
:1052FC00A7FC0346002B05D07B685B6D43F0400296
:10530C007B685A657B689B6C002B16D07B689B6C0A
:10531C000C4A5A637B689B6C1846FEF791FC03465B
:10532C00002B0AD07B685B6D43F040027B685A65AA
:10533C0003E0786800F011F800E000BF00BF2037F0
:10534C00BD4680BD7B54000880B483B000AF78604C
:10535C0000BF0C37BD4680BC704780B483B000AF33
:10536C00786000BF0C37BD4680BC704780B586B0F6
:10537C0000AF78607B685B6A7B61FDF723FD386169
:10538C007B681B681B6803F02003202B3BD07B69D8
:10539C001B685A687B691B6822F020025A607B6983
:1053AC001B685A687B691B6822F002025A603A69D2
:1053BC006421786900F0F8F80346002B05D07B696E
:1053CC005B6D43F020027B695A657B699B68002BFF
:1053DC000AD10023FB607B691B68DB68FB607B697F
:1053EC001B689B68FB60FB687B690022DA867B6923
:1053FC00012283F851207B695B6D002B03D0786907
:10540C00FFF7ABFF02E07869FBF750FB1837BD469E
:10541C0080BD80B584B000AF78607B685B6AFB6050
:10542C00F868FFF791FF00BF1037BD4680BD80B50F
:10543C0084B000AF78607B685B6AFB60FB681B68BC
:10544C005A68FB681B6822F003025A60FB685B6DAC
:10545C0043F01002FB685A65FB68012283F8512067
:10546C00F868FFF77AFF00BF1037BD4680BD80B5E6
:10547C0084B000AF78607B685B6AFB60FB680022DD
:10548C00DA87FB680022DA86F868FFF766FF00BF50
:10549C001037BD4680BD000080B588B000AFF86005
:1054AC00B9603B601346FB71FDF78CFC0246BB6A8E
:1054BC009B1A3A681344FB61FDF784FCB861394BC5
:1054CC001B685B011B0DFA6902FB03F37B6154E063
:1054DC003B68B3F1FF3F50D0FDF774FC0246BB694B
:1054EC00D31AFA699A4202D9FB69002B3DD1FB68A9
:1054FC001B685A68FB681B6822F0E0025A60FB6864
:10550C005B68B3F5827F11D1FB689B68B3F5004FE4
:10551C0004D0FB689B68B3F5806F07D1FB681B68F0
:10552C001A68FB681B6822F040021A60FB689B6AD1
:10553C00B3F5005F0FD1FB681B681A68FB681B682A
:10554C0022F400521A60FB681B681A68FB681B681F
:10555C0042F400521A60FB68012283F85120FB6868
:10556C00002283F85020032317E07B69002B01D124
:10557C000023FB617B69013B7B61FB681B689A68BC
:10558C00BB681340BA689A420CBF01230023DBB2FC
:10559C001A46FB799A429BD1002318462037BD4608
:1055AC0080BD00BF0800002080B586B002AFF86057
:1055BC00B9607A607B680093BB6801220221F868AD
:1055CC00FFF76AFF0346002B07D0FB685B6D43F0C7
:1055DC002002FB685A65032313E07B680093BB68C9
:1055EC0000228021F868FFF757FF0346002B07D0F5
:1055FC00FB685B6D43F02002FB685A65032300E0F7
:10560C00002318461037BD4680BD80B582B000AF70
:10561C0078607B68002B01D1012341E07B6893F813
:10562C003D30DBB2002B06D17B68002283F83C2096
:10563C007868FDF7BDFA7B68022283F83D207B6811
:10564C001A687B6804331946104600F07FFD7B68AE
:10565C00012283F846207B68012283F83E207B6878
:10566C00012283F83F207B68012283F840207B686D
:10567C00012283F841207B68012283F842207B6859
:10568C00012283F843207B68012283F844207B6845
:10569C00012283F845207B68012283F83D200023FA
:1056AC0018460837BD4680BD80B485B000AF786021
:1056BC007B6893F83D30DBB2012B01D0012332E043
:1056CC007B68022283F83D207B681B68184A934252
:1056DC000ED07B681B68B3F1804F09D07B681B68C8
:1056EC00144A934204D07B681B68134A934211D12D
:1056FC007B681B689B6803F00703FB60FB68062B49
:10570C0010D07B681B681A687B681B6842F001022A
:10571C001A6007E07B681B681A687B681B6842F09C
:10572C0001021A60002318461437BD4680BC70472E
:10573C00002C0140000400400008004080B485B0FB
:10574C0000AF78607B6893F83D30DBB2012B01D061
:10575C0001233AE07B68022283F83D207B681B68BA
:10576C00DA687B681B6842F00102DA607B681B68B0
:10577C00184A93420ED07B681B68B3F1804F09D056
:10578C007B681B68144A934204D07B681B68134ADD
:10579C00934211D17B681B689B6803F00703FB6085
:1057AC00FB68062B10D07B681B681A687B681B682B
:1057BC0042F001021A6007E07B681B681A687B687C
:1057CC001B6842F001021A60002318461437BD46CC
:1057DC0080BC7047002C01400004004000080040D1
:1057EC0080B582B000AF78607B68002B01D10123BB
:1057FC0041E07B6893F83D30DBB2002B06D17B682F
:10580C00002283F83C207868FDF750F97B6802226F
:10581C0083F83D207B681A687B6804331946104670
:10582C0000F094FC7B68012283F846207B680122FF
:10583C0083F83E207B68012283F83F207B6801229D
:10584C0083F840207B68012283F841207B68012289
:10585C0083F842207B68012283F843207B68012275
:10586C0083F844207B68012283F845207B68012261
:10587C0083F83D20002318460837BD4680BD000044
:10588C0080B584B000AF786039603B68002B09D1DB
:10589C007B6893F83E30DBB2012B14BF012300234D
:1058AC00DBB222E03B68042B09D17B6893F83F30D4
:1058BC00DBB2012B14BF01230023DBB215E03B68E4
:1058CC00082B09D17B6893F84030DBB2012B14BF55
:1058DC0001230023DBB208E07B6893F84130DBB294
:1058EC00012B14BF01230023DBB2002B01D00123B9
:1058FC005EE03B68002B04D17B68022283F83E20DB
:10590C0013E03B68042B04D17B68022283F83F2010
:10591C000BE03B68082B04D17B68022283F8402003
:10592C0003E07B68022283F841207B681B6801221C
:10593C003968184601F01BF87B681B681E4A9342B5
:10594C0007D17B681B685A6C7B681B6842F4004269
:10595C005A647B681B68184A93420ED07B681B689C
:10596C00B3F1804F09D07B681B68144A934204D072
:10597C007B681B68124A934211D17B681B689B6839
:10598C0003F00703FB60FB68062B10D07B681B68D9
:10599C001A687B681B6842F001021A6007E07B689A
:1059AC001B681A687B681B6842F001021A600023AE
:1059BC0018461037BD4680BD002C01400004004045
:1059CC000008004080B582B000AF78607B68002B87
:1059DC0001D1012341E07B6893F83D30DBB2002B11
:1059EC0006D17B68002283F83C207868FDF78EF89E
:1059FC007B68022283F83D207B681A687B6804333D
:105A0C001946104600F0A2FB7B68012283F8462061
:105A1C007B68012283F83E207B68012283F83F20BB
:105A2C007B68012283F840207B68012283F84120A7
:105A3C007B68012283F842207B68012283F8432093
:105A4C007B68012283F844207B68012283F845207F
:105A5C007B68012283F83D20002318460837BD4699
:105A6C0080BD000080B584B000AF786039603B68C1
:105A7C00002B04D17B6893F83E30DBB213E03B681B
:105A8C00042B04D17B6893F83F30DBB20BE03B680E
:105A9C00082B04D17B6893F84030DBB203E07B68C1
:105AAC0093F84130DBB2FB733B68002B04D17B686D
:105ABC0093F84230DBB213E03B68042B04D17B68D3
:105ACC0093F84330DBB20BE03B68082B04D17B68C6
